:1000000012C0189518951895189518951895189563
:100010001895189518951895189518951895189578
:100020001895189518958FE58DBFC2E4EAE34E2E1A
:1000300084E08EBFD4E0F4E05F2EEEEFF3E0A0E6C4
:10004000B0E088278D933197E9F783E389B980E0A1
:1000500080BD88E18AB9662486E086B980E487B9E4
:10006000379A80E090E0A7E6B0E08D939C9380E41F
:10007000806487B945D0A0E6B0E08D939C93ECE214
:10008000F3E045D1E0E6F0E0D190E080FF240027E6
:1000900098D0E3D0EDE0F0E0A2E6B0E041D1E2E6B6
:1000A000F0E037D0A6E6B0E0DC9231E0A6E6B0E0C2
:1000B00006D08AE090E015D0DACFF894FFCF8D918A
:1000C00003D03A95E1F708955D9BFECF8CB9089572
:1000D0003197F1F70895689462F80895E89462F80A
:1000E0000895EF93FF93EE27E82BE92B31F0E0ED35
:1000F000F7E03197F1F70197D1F7FF91EF9108956C
:10010000369A3699FECF369A3699FECF84B195B19C
:10011000089533D0992711278F2D880F80E8F82A6A
:10012000802F881F08F41FEF41F08F57082F07FD1D
:1001300004C0003240F08FEF01C08827982FD82EDE
:10014000E82EF82E09C08FE1801B082FF694E79463
:10015000D79497950A95D1F7112351F09095D094A3
:10016000E094F09481E0980F8827D81EE81EF81ECE
:100170000F2DFE2CED2CD92E0895D190E190F19009
:100180000191089521913191419151910895102F3C
:1001900090E8FF0C001F0927990FF7941078652F3E
:1001A00090E8440F551F5927990F479560780038FC
:1001B0000895FF0C90E89027110F9795F794092F59
:1001C0000895102FBD2CDE2CEF2CF02E11234AF4B5
:1001D000B094D094E094F0949FEFB91AD90AE90A48
:1001E000F90A0EE1FF2039F4FE2CED2CDB2CBB24A8
:1001F0000850C2F766C032F00A95BB0CDD1CEE1C3D
:10020000FF1CF9CF01D0D5CFB7FE089590E8B916FD
:1002100011F4D0FE08959FEFD91AE90AF90A09F4FA
:1002200003950895502F2D2D3E2D4F2D612F0895AC
:100230002DEC3CEC4CEC5DE366270FC09EDFF2DF5B
:10024000DD24EE2490E8F92E0FE307C09BDF05C004
:100250002227332740E251E46627552351F100233A
:1002600081F195DF71F11627005850580894050B5D
:1002700018F407FD03C025C007FD23C04695379538
:100280002795F694E794D79422D0FF202AF0DD0C2E
:10029000EE1CFF1C015073F09D2D969548F0DD205B
:1002A0003AF4EE202AF491E0D90E9927E91EF91EBE
:1002B00080CF07C09FE7092FF92A9FEFD92EE92E9B
:1002C0000895DD24EE24FF240027112708959F922E
:1002D0009924AA24BB2488E1D216E306F40628F068
:1002E000D21AE30AF40A089401C08894991CAA1C43
:1002F000BB1CDD0CEE1CFF1C8A9571F7D92CEA2C77
:10030000FB2C9F900895C895319600200895FBDF3F
:10031000202DF9DF302DF7DF402DF5DF502D08952A
:1003200094E081918D939A95E1F708956F120340BF
:00000001FF
