:100000000C942A0018950000189500000C941A0B07
:10001000189500001895000018950000189500002C
:10002000189500001895000018950000189500001C
:10003000189500001895000018950000189500000C
:1000400018950000189500001895000018950000FC
:10005000189500008FE58DBFC2E4EAE34E2E88E0DC
:100060008EBFD8E0F8E05F2EEEEFF7E0A0E6B0E05C
:1000700088278D933197E9F7662480E08ABBB99889
:10008000BC988FE384BB0E94592084B7806484BFEE
:100090008BB780628BBF78940E94A5200E94B2200B
:1000A0008CE90E949C20B898BB9880E080933B022A
:1000B00084E680933C0280EA8093490288EC809336
:1000C0004B0288EC80934A0288EC80934C0288ECC7
:1000D00080934F02809154028068809354028091F3
:1000E00054028F7D80935402809154028F7B8093C1
:1000F0005402809154028F7E80935402B098B1983C
:1001000081E0809333020E94A5200E94B22059E032
:1001100046E00E94B820EEE6F4E40E94F31F0027B8
:10012000A6E3B0E08C9181FB0EF401E041E00417FE
:1001300011F00C949D000E94AD000027A6E3B0E0F2
:100140008C9184FB0EF401E041E0041711F00C9453
:10015000AB000E9465040C9487000E94B220E2E08C
:10016000F0E00E94FA1F59E04AE00E94B820E2E85D
:10017000F4E40E94F31F86EE80933F0240913F0219
:1001800005E0041718F011F00C94ED000E941D20FA
:10019000AFE3B2E0AD90BB24A2E6B0E0AA0DBB1D78
:1001A0008C9304E6AFE3B2E0AD90BB24A2E6B0E0EE
:1001B000AA0DBB1D4C91041BAFE3B2E0AD90BB2474
:1001C000A2E6B0E0AA0DBB1D0C9380913F028150C6
:1001D00080933F0210F00C94BE000E94B2208091E8
:1001E000540282608093540281E0809355020E9401
:1001F000B2200E94A52084E08A9385E08A9384E05F
:100200008A9385E68A938FEF8A930E94412184E046
:100210008A9385E68A9386EE8A9385E68A938FEFA2
:100220008A930E94412143E055E091E00E94CA2058
:1002300042E055E091E00E94CA2045E055E091E09F
:100240000E94CA2046E055E091E00E94CA2043E0A7
:1002500054E091E00E94CA2045E054E091E00E9401
:10026000CA2044E054E091E00E94CA2044E053E0F8
:1002700091E00E94CA2043E05AE591E00E94CA2022
:1002800043E050E591E00E94CA2043E056E491E04B
:100290000E94CA2043E05CE391E00E94CA2043E050
:1002A00052E391E00E94CA2043E058E291E00E94AC
:1002B000CA2043E05EE191E00E94CA2043E054E19D
:1002C00091E00E94CA2043E05AE091E00E94CA20D7
:1002D00044EE53E691E00E94CA2044EE54E691E0D9
:1002E0000E94CA2044EE56E691E00E94CA2044EEE5
:1002F00057E691E00E94CA2045EE54E691E00E9444
:10030000CA2045EE56E691E00E94CA204EE056E62D
:1003100091E00E94CA2048E156E691E00E94CA207E
:1003200042E256E691E00E94CA204CE256E691E095
:100330000E94CA2046E356E691E00E94CA2040E4AB
:1003400056E691E00E94CA204AE456E691E00E94F7
:10035000CA2044E556E691E00E94CA204EE556E6E2
:1003600091E00E94CA2048E656E691E00E94CA2029
:1003700042E756E691E00E94CA204CE756E691E03B
:100380000E94CA2046E856E691E00E94CA2040E951
:1003900056E691E00E94CA204AE956E691E00E94A2
:1003A000CA2044EA56E691E00E94CA204EEA56E688
:1003B00091E00E94CA2048EB56E691E00E94CA20D4
:1003C00042EC56E691E00E94CA204CEC56E691E0E1
:1003D0000E94CA2046ED56E691E00E94CA2040EEF7
:1003E00056E691E00E94CA2051E042E00E94B82007
:1003F000EEE8F4E40E94F31F5DE04EE10E94B820B5
:10040000E6E9F4E40E94F31F0027A6E3B0E08C9134
:1004100081FB0EF401E040E0041711F00C9412028D
:100420000E9483000027A6E3B0E08C9184FB0EF4C9
:1004300001E041E0041711F00C942C020027A4E520
:10044000B2E08C9182FB0EF401E040E0041711F061
:100450000C942C020E94740D0027A4E5B2E08C914C
:1004600087FB0EF401E041E0041711F00C94400208
:100470005EE041E00E94B820E8E9F4E40E94F31F46
:100480000027A4E5B2E08C9185FB0EF401E041E089
:10049000041711F00C9454025FE041E00E94B82070
:1004A000E0EAF4E40E94F31F0027A4E5B2E08C9197
:1004B00086FB0EF401E041E0041711F00C94680291
:1004C00050E141E00E94B820E8EAF4E40E94F31F02
:1004D0000027A4E5B2E08C9184FB0EF401E041E03A
:1004E000041711F00C947C025EE04BE00E94B820EF
:1004F000E0EBF4E40E94F31F0027A4E5B2E08C9146
:1005000083FB0EF401E041E0041711F00C9490021B
:100510005FE04BE00E94B820EAEBF4E40E94F31F96
:1005200085E080933F0200913F02063E18F011F0F3
:100530000C94D30200913F0241E0040FA1E4B2E029
:100540000C93A1E4B2E0AD90BB24A2E6B0E0AA0D0A
:10055000BB1D8C9180933102AFE3B2E0AD90BB2420
:10056000A2E6B0E0AA0DBB1D8C9180933202AFE3EE
:10057000B2E08C918A93A2E3B2E08C918A93A1E4D9
:10058000B2E08C918A93A1E3B2E08C918A938FEFD1
:100590008A930E944121AFE3B2E08C918F5F8C93EC
:1005A00010F40C949302A3E3B2E0EC91FF270E94B5
:1005B000FA1F85E080933F0200913F02063E18F04B
:1005C00011F00C941C0300913F0241E0040FA1E4E0
:1005D000B2E00C93A1E4B2E0AD90BB24A2E6B0E09F
:1005E000AA0DBB1D8C9180933102AFE3B2E0AD90B8
:1005F000BB24A2E6B0E0AA0DBB1D8C918093320211
:10060000AFE3B2E08C918A93A2E3B2E08C918A933B
:10061000A1E4B2E08C918A93A1E3B2E08C918A9339
:1006200080E08A930E944121AFE3B2E08C918F5F1A
:100630008C9310F40C94DC0286EE80933F02409180
:100640003F0205E0041718F011F00C9448030091E4
:100650003F0241E0040FA1E4B2E00C93AFE3B2E04B
:10066000AD90BB24A2E6B0E0AA0DBB1D8C91A1E425
:10067000B2E0AD90BB24A2E6B0E0AA0DBB1D8C9306
:1006800080913F02815080933F0210F00C941F0331
:100690000E941D20A7E3B2E08C930091370206343C
:1006A00010F00C945703809137028093670080917B
:1006B000670080933A02AAE3B2E00D91112741E16D
:1006C00051E0040F151FA6E4B2E00D931C930091B6
:1006D0005602013011F00C947103809167008093F1
:1006E00067000027A7E5B2E08C9187FB0EF401E0DC
:1006F00041E0041711F00C94840302E0409167007C
:10070000049FA7E6B0E00C920027A7E5B2E08C9129
:1007100086FB0EF401E041E0041711F00C949703FE
:1007200003E040916700049FA7E6B0E00C92002729
:10073000A7E5B2E08C9185FB0EF401E041E00417DF
:1007400011F00C94AA0304E040916700049FA7E60F
:10075000B0E00C9204E640916700041BA7E6B0E00D
:100760000C930027A4E5B2E08C9187FB0EF401E026
:1007700041E0041711F00C94C9035EE047E00E94C9
:10078000B820A2E2B8E0EAE3F2E00E94C1210E94B0
:10079000EB1F40913B0200913A02041718F011F050
:1007A0000C94D4030C94D80380913A0280933B02BA
:1007B0000027A4E5B2E08C9185FB0EF401E041E056
:1007C000041711F00C94F0035FE047E00E94B8209A
:1007D000A2E2B8E0EBE3F2E00E94C1210E94EB1F2D
:1007E00040913C0200913A02041710F00C94FC0373
:1007F00080913A0280933C020027A4E5B2E08C91FC
:1008000086FB0EF401E041E0041711F00C9414048F
:1008100050E147E00E94B820A2E2B8E0ECE3F2E049
:100820000E94C1210E94EB1F0027A4E5B2E08C9139
:1008300084FB0EF401E041E0041711F00C94300445
:100840005EE045E10E94B820A2E2B8E0E6E4F2E012
:100850000E94B2210E94EB1FE4ECF4E40E94F31F1B
:100860000027A4E5B2E08C9183FB0EF401E041E0A7
:10087000041711F00C9448045FE045E10E94B82091
:10088000A2E2B8E0E3E3F2E00E94C1210E94EB1F84
:10089000A3E4B2E00C9107FB00270EF401E041E075
:1008A000041711F00C946004E894A3E4B2E08C9176
:1008B00087F98C9384EF91E00E944A200E94F20B0A
:1008C0000C940402F894FFCF08950E94B220E2E055
:1008D000F0E00E94FA1F59E04AE00E94B820E2E8E6
:1008E000F4E40E94F31F86EE8093400240914002A0
:1008F00005E0041718F011F00C94A5040E943820AC
:10090000A0E4B2E0AD90BB24A9E4B1E0AA0DBB1D08
:100910008C9304E6A0E4B2E0AD90BB24A9E4B1E07E
:10092000AA0DBB1D4C91041BA0E4B2E0AD90BB240A
:10093000A9E4B1E0AA0DBB1D0C9380914002815047
:100940008093400210F00C9476040E94B2208091B3
:10095000540281608093540282E0809355020E9489
:10096000A5200E94B22084E08A9385E08A9384E0E7
:100970008A9385E68A938FEF8A930E94412184E0CF
:100980008A9385E68A9386EE8A9385E68A938FEF2B
:100990008A930E94412143E055E091E00E94CA20E1
:1009A00042E055E091E00E94CA2045E055E091E028
:1009B0000E94CA2046E055E091E00E94CA2043E030
:1009C00054E091E00E94CA2045E054E091E00E948A
:1009D000CA2044E054E091E00E94CA2044E053E081
:1009E00091E00E94CA2043E05AE591E00E94CA20AB
:1009F00043E050E591E00E94CA2043E056E491E0D4
:100A00000E94CA2043E05CE391E00E94CA2043E0D8
:100A100052E391E00E94CA2043E058E291E00E9434
:100A2000CA2043E05EE191E00E94CA2043E054E125
:100A300091E00E94CA2043E05AE091E00E94CA205F
:100A400044EE53E691E00E94CA2044EE54E691E061
:100A50000E94CA2044EE56E691E00E94CA2044EE6D
:100A600057E691E00E94CA2045EE54E691E00E94CC
:100A7000CA2045EE56E691E00E94CA204EE056E6B6
:100A800091E00E94CA2048E156E691E00E94CA2007
:100A900042E256E691E00E94CA204CE256E691E01E
:100AA0000E94CA2046E356E691E00E94CA2040E434
:100AB00056E691E00E94CA204AE456E691E00E9480
:100AC000CA2044E556E691E00E94CA204EE556E66B
:100AD00091E00E94CA2048E656E691E00E94CA20B2
:100AE00042E756E691E00E94CA204CE756E691E0C4
:100AF0000E94CA2046E856E691E00E94CA2040E9DA
:100B000056E691E00E94CA204AE956E691E00E942A
:100B1000CA2044EA56E691E00E94CA204EEA56E610
:100B200091E00E94CA2048EB56E691E00E94CA205C
:100B300042EC56E691E00E94CA204CEC56E691E069
:100B40000E94CA2046ED56E691E00E94CA2040EE7F
:100B500056E691E00E94CA2051E042E00E94B8208F
:100B6000EEE8F4E40E94F31F5DE04EE10E94B8203D
:100B7000E6E9F4E40E94F31F0027A6E3B0E08C91BD
:100B800084FB0EF401E040E0041711F00C94CA0558
:100B90000E9483000027A6E3B0E08C9181FB0EF455
:100BA00001E041E0041711F00C94E4050027A4E5EE
:100BB000B2E08C9182FB0EF401E040E0041711F0EA
:100BC0000C94E4050E94740D0027A4E5B2E08C911A
:100BD00087FB0EF401E041E0041711F00C94F805D6
:100BE0005EE041E00E94B820E8E9F4E40E94F31FCF
:100BF0000027A4E5B2E08C9185FB0EF401E041E012
:100C0000041711F00C940C065FE041E00E94B8203C
:100C1000E0EAF4E40E94F31F0027A4E5B2E08C911F
:100C200086FB0EF401E041E0041711F00C9420065D
:100C300050E141E00E94B820E8EAF4E40E94F31F8A
:100C40000027A4E5B2E08C9184FB0EF401E041E0C2
:100C5000041711F00C9434065EE04BE00E94B820BB
:100C6000E0EBF4E40E94F31F0027A4E5B2E08C91CE
:100C700083FB0EF401E041E0041711F00C944806E8
:100C80005FE04BE00E94B820EAEBF4E40E94F31F1F
:100C900085E08093400200914002063E18F011F07A
:100CA0000C948B060091400241E0040FA2E4B2E0F4
:100CB0000C93A2E4B2E0AD90BB24A9E4B1E0AA0D8C
:100CC000BB1D8C9180933402A0E4B2E0AD90BB24B4
:100CD000A9E4B1E0AA0DBB1D8C9180933502A0E47C
:100CE000B2E08C918A93A5E3B2E08C918A93A2E45E
:100CF000B2E08C918A93A4E3B2E08C918A938FEF57
:100D00008A930E944121A0E4B2E08C918F5F8C9382
:100D100010F40C944B06A3E3B2E0EC91FF270E9481
:100D2000FA1F85E08093400200914002063E18F0D1
:100D300011F00C94D4060091400241E0040FA2E4AB
:100D4000B2E00C93A2E4B2E0AD90BB24A9E4B1E020
:100D5000AA0DBB1D8C9180933402A0E4B2E0AD904B
:100D6000BB24A9E4B1E0AA0DBB1D8C918093350290
:100D7000A0E4B2E08C918A93A5E3B2E08C918A93CF
:100D8000A2E4B2E08C918A93A4E3B2E08C918A93BE
:100D900080E08A930E944121A0E4B2E08C918F5FB1
:100DA0008C9310F40C94940686EE8093400240914C
:100DB000400205E0041718F011F00C9400070091B0
:100DC000400241E0040FA2E4B2E00C93A0E4B2E0E0
:100DD000AD90BB24A9E4B1E0AA0DBB1D8C91A2E4A7
:100DE000B2E0AD90BB24A9E4B1E0AA0DBB1D8C9389
:100DF0008091400281508093400210F00C94D706FD
:100E00000E943820A8E3B2E08C93009138020634A7
:100E100010F00C940F078091380280934E0180915E
:100E20004E0180933A02AAE3B2E00D91112741E10D
:100E300051E0040F151FA6E4B2E00D931C9300913E
:100E40005602013011F00C94290780914E018093D5
:100E50004E010027A7E5B2E08C9187FB0EF401E07C
:100E600041E0041711F00C943C0702E040914E0160
:100E7000049FAEE4B1E00C920027A7E5B2E08C91AC
:100E800086FB0EF401E041E0041711F00C944F07CB
:100E900003E040914E01049FAEE4B1E00C920027C4
:100EA000A7E5B2E08C9185FB0EF401E041E0041768
:100EB00011F00C94620704E040914E01049FAEE4EF
:100EC000B1E00C9204E640914E01041BAEE4B1E0A7
:100ED0000C930027A4E5B2E08C9187FB0EF401E0AF
:100EE00041E0041711F00C9481075EE047E00E9496
:100EF000B820A2E2B8E0EAE3F2E00E94C1210E9439
:100F0000EB1F40913B0200913A02041718F011F0D8
:100F10000C948C070C94900780913A0280933B02CA
:100F20000027A4E5B2E08C9185FB0EF401E041E0DE
:100F3000041711F00C94A8075FE047E00E94B82066
:100F4000A2E2B8E0EBE3F2E00E94C1210E94EB1FB5
:100F500040913C0200913A02041710F00C94B4073F
:100F600080913A0280933C020027A4E5B2E08C9184
:100F700086FB0EF401E041E0041711F00C94CC075D
:100F800050E147E00E94B820A2E2B8E0ECE3F2E0D2
:100F90000E94C1210E94EB1F0027A4E5B2E08C91C2
:100FA00084FB0EF401E041E0041711F00C94E80713
:100FB0005EE045E10E94B820A2E2B8E0E6E4F2E09B
:100FC0000E94B2210E94EB1FE4ECF4E40E94F31FA4
:100FD0000027A4E5B2E08C9183FB0EF401E041E030
:100FE000041711F00C9400085FE045E10E94B8205E
:100FF000A2E2B8E0E3E3F2E00E94C1210E94EB1F0D
:10100000A3E4B2E00C9107FB00270EF401E041E0FD
:10101000041711F00C941808E894A3E4B2E08C9142
:1010200087F98C9384EF91E00E944A200E94F20B92
:101030000C94BC0508950E94A5200E94B22057E0A0
:1010400046E00E94B820E6ECF4E40E94F31F59E069
:1010500046E00E94B820EAEDF4E40E94F31FE4E0C9
:10106000F0E00E94FA1F83E0809353020E94A520C3
:101070000E94B22083EC8A938CE38A9380E08A9367
:10108000E2E3FEE28827809360000E94F0200027C0
:10109000A6E3B0E08C9181FB0EF401E041E004177F
:1010A00011F00C9465088AE08A938AE08A9380E0C4
:1010B0008A93E4E6FDE28827809360000E94F02096
:1010C0000E941D20A0E5B2E08C930027A6E3B0E0CB
:1010D0008C9184FB0EF401E041E0041711F00C94B4
:1010E00083088AE08A938AE08A9380E08A93E6E91B
:1010F000FCE28827809360000E94F0200E94382044
:10110000A0E5B2E08C93009150024AE00E942722B1
:10111000A1E5B2E00C93009150024AE00E94272220
:10112000A2E5B2E08C9300915102003011F00C94D2
:10113000A6088EE68A9382E38A9380E08A93E2EFA0
:10114000FEE28827809360000E94F0200091510207
:10115000013011F00C94B9088EE68A9382E38A93E9
:1011600080E08A93E4ECFFE28827809360000E948D
:10117000F02000915102023011F00C94CC088EE660
:101180008A9382E38A9380E08A93E8ECF0E38827ED
:10119000809360000E94F02000915102033011F012
:1011A0000C94DF088EE68A9382E38A9380E08A9328
:1011B000EAEBF1E38827809360000E94F020009121
:1011C0005102043011F00C94F2088EE68A9382E307
:1011D0008A9380E08A93E4EDF2E3882780936000AD
:1011E0000E94F02000915102053011F00C94050985
:1011F0008EE68A9382E38A9380E08A93EEEBF3E3B0
:101200008827809360000E94F020009151020630F0
:1012100011F00C9418098EE68A9382E38A9380E099
:101220008A93E2EFF4E38827809360000E94F02025
:1012300000915102073011F00C942B098EE68A932D
:1012400082E38A9380E08A93ECEDF5E3882780932C
:1012500060000E94F02000915102083011F00C94BF
:101260003E098EE68A9382E38A9380E08A93E8EDD2
:10127000F6E38827809360000E94F02000915102DD
:10128000093011F00C9451098EE68A9382E38A9317
:1012900080E08A93E6EDF7E38827809360000E9460
:1012A000F02000915202003011F00C94640986E99C
:1012B0008A9382E38A9380E08A93E2EFFEE28827B2
:1012C000809360000E94F02000915202013011F0E2
:1012D0000C94770986E98A9382E38A9380E08A9363
:1012E000E4ECFFE28827809360000E94F0200091E8
:1012F0005202023011F00C948A0986E98A9382E343
:101300008A9380E08A93E8ECF0E38827809360007A
:101310000E94F02000915202033011F00C949D09BC
:1013200086E98A9382E38A9380E08A93EAEBF1E389
:101330008827809360000E94F020009152020430C0
:1013400011F00C94B00986E98A9382E38A9380E0D5
:101350008A93E4EDF2E38827809360000E94F020F6
:1013600000915202053011F00C94C30986E98A936A
:1013700082E38A9380E08A93EEEBF3E388278093FD
:1013800060000E94F02000915202063011F00C948F
:10139000D60986E98A9382E38A9380E08A93E2EF12
:1013A000F4E38827809360000E94F02000915202AD
:1013B000073011F00C94E90986E98A9382E38A9355
:1013C00080E08A93ECEDF5E38827809360000E942B
:1013D000F02000915202083011F00C94FC0986E9CB
:1013E0008A9382E38A9380E08A93E8EDF6E3882784
:1013F000809360000E94F02000915202093011F0A9
:101400000C940F0A86E98A9382E38A9380E08A9398
:10141000E6EDF7E38827809360000E94F0205FE00C
:1014200042E00E94B820EEEEF4E40E94F31F5FE079
:101430004EE00E94B820E8EFF4E40E94F31FA3E519
:10144000B2E0EC91FF270E94FA1F8EE68A9382E3B6
:101450008A9380E08A93EAE8FCE288278093600020
:101460000E94F020A3E4B2E00C9105FB00270EF4EB
:1014700001E041E0041711F00C944A0AE1E0F0E0C9
:101480000E94FA1FE894A3E4B2E08C9185F98C9352
:101490000E94720AA3E4B2E00C9106FB00270EF44E
:1014A00001E041E0041711F00C94700AE1E0F0E073
:1014B0000E94FA1FE894A3E4B2E08C9186F98C9321
:1014C00000915502013011F00C94680A0E94F4005A
:1014D00000915502023011F00C94700A0E94AC0485
:1014E0000C943A080E94A5200E94B22052E042E0EB
:1014F0000E94B820E6E0F5E40E94F31F57E04BE0BD
:101500000E94B820EEE1F5E40E94F31F5FE042E0A4
:101510000E94B820EEEEF4E40E94F31F86E48A9362
:101520008DE28A9380E08A93E2E5FCE2882780934B
:1015300060000E94F02086E98A938DE28A9380E021
:101540008A93EEE6FCE28827809360000E94F020F8
:10155000A3E4B2E00C9103FB00270EF401E041E0AC
:10156000041711F00C94C30AE1E0F0E00E94FA1FA6
:10157000E894A3E4B2E08C9183F98C9380915302B8
:10158000815080935302A3E4B2E00C9102FB002748
:101590000EF401E041E0041711F00C94DE0AE1E0E2
:1015A000F0E00E94FA1FE894A3E4B2E08C9182F983
:1015B0008C93A3E5B2E08C918F5F8C9300915302E2
:1015C000013010F00C94E70A81E0809353020091FF
:1015D0005302093018F011F00C94F00A0C94F30A3D
:1015E00089E080935302A3E4B2E00C9106FB00274C
:1015F0000EF401E041E0041711F00C940B0BE1E054
:10160000F0E00E94FA1FE894A3E4B2E08C9186F91E
:101610008C930E94360857E040E10E94B820A2E275
:10162000B8E0E3E5F2E00E94C1210E94EB1F0C94B8
:10163000A80A08950F921F922F923F924F925F92A5
:101640007F92AF92BF920F931F932F933F934F932D
:101650005F936F937F938F939F93AF93BF93CF933A
:10166000DF93EF93FF938FB78F93A9E3B0E08C9153
:1016700080FBA3E4B2E08C9180F98C93A9E3B0E005
:101680008C9181FBA3E4B2E08C9181F98C93A9E366
:10169000B0E08C9182FBA3E4B2E08C9182F98C9350
:1016A000A9E3B0E08C9183FBA3E4B2E08C9183F9D1
:1016B0008C93A9E3B0E08C9184FBA3E4B2E08C911D
:1016C00084F98C93A9E3B0E08C9185FBA3E4B2E0AC
:1016D0008C9185F98C93A9E3B0E08C9186FBA3E40F
:1016E000B2E08C9186F98C93A9E3B0E08C9187FBF2
:1016F000A3E4B2E08C9187F98C938AE090E00E9499
:101700004A20A9E3B0E08C9180FBA4E4B2E08C9184
:1017100080F98C93A9E3B0E08C9181FBA4E4B2E062
:101720008C9181F98C93A9E3B0E08C9182FBA4E4C5
:10173000B2E08C9182F98C93A9E3B0E08C9183FBA9
:10174000A4E4B2E08C9183F98C93A9E3B0E08C918E
:1017500084FBA4E4B2E08C9184F98C93A9E3B0E01B
:101760008C9185FBA4E4B2E08C9185F98C93A9E37C
:10177000B0E08C9186FBA4E4B2E08C9186F98C9366
:10178000A9E3B0E08C9187FBA4E4B2E08C9187F9E7
:101790008C934091620000916100041711F40C9445
:1017A000D50B0C94350B0C94D60B00008F918FBF8A
:1017B000FF91EF91DF91CF91BF91AF919F918F9169
:1017C0007F916F915F914F913F912F911F910F9159
:1017D000BF90AF907F905F904F903F902F901F9061
:1017E0000F9018950E94A5200E94B22080E180935E
:1017F00045028BE18A93A5E4B2E08C918A9380E064
:101800008A93ECEEFDE38827809360000E94F0202D
:1018100053E045E00E94B820E4E2F5E40E94F31FA3
:1018200055E045E00E94B820E4E3F5E40E94F31F90
:1018300057E045E00E94B820E0E4F5E40E94F31F81
:1018400059E045E00E94B820E2E5F5E40E94F31F6C
:101850005BE045E00E94B820EAE5F5E40E94F31F52
:10186000A3E4B2E00C9101FB00270EF401E041E09B
:10187000041711F00C944F0C00E140914502040F45
:10188000A5E4B2E00C930E94A520E894A3E4B2E0A2
:101890008C9181F98C9384EF91E00E944A20A3E41B
:1018A000B2E00C9100FB00270EF401E041E00417C8
:1018B00011F00C946C0CA5E4B2E08C9180518C93E7
:1018C0000E94A520E894A3E4B2E08C9180F98C9367
:1018D00084EF91E00E944A20009145020F3010F001
:1018E0000C94750C80E5809345020091450200350B
:1018F00018F011F00C947E0C0C94810C80E1809314
:10190000450200914502003111F00C949F0CA3E4B4
:10191000B2E00C9105FB00270EF401E041E0041752
:1019200011F00C949F0CE1E0F0E00E94FA1FE894A3
:10193000A3E4B2E08C9185F98C930E94740D009120
:101940004502003211F00C94BD0CA3E4B2E00C91FE
:1019500005FB00270EF401E041E0041711F00C94A0
:10196000BD0CE1E0F0E00E94FA1FE894A3E4B2E0CD
:101970008C9185F98C930E948A0E00914502003368
:1019800011F00C94DB0CA3E4B2E00C9105FB0027F2
:101990000EF401E041E0041711F00C94DB0CE1E0DF
:1019A000F0E00E94FA1FE894A3E4B2E08C9185F97C
:1019B0008C930E941B0800914502003411F00C9496
:1019C000F90CA3E4B2E00C9105FB00270EF401E052
:1019D00041E0041711F00C94F90CE1E0F0E00E94F2
:1019E000FA1FE894A3E4B2E08C9185F98C930E94ED
:1019F000B01500914502003511F00C94250DA3E4BB
:101A0000B2E00C9105FB00270EF401E041E0041761
:101A100011F00C94250DE1E0F0E00E94FA1FE8942B
:101A2000A3E4B2E08C9185F98C93009155020130CA
:101A300011F00C941D0D0E94F4000091550202302B
:101A400011F00C94250D0E94AC04A3E4B2E00C91BB
:101A500006FB00270EF401E041E0041711F00C949E
:101A60004B0DE1E0F0E00E94FA1FE894A3E4B2E03D
:101A70008C9186F98C9300915502013011F00C94F1
:101A8000430D0E94F40000915502023011F00C94B5
:101A90004B0D0E94AC04A3E4B2E00C9104FB0027C0
:101AA0000EF401E041E0041711F00C94710DE1E037
:101AB000F0E00E94FA1FE894A3E4B2E08C9184F96C
:101AC0008C9300915502013011F00C94690D0E9425
:101AD000F40000915502023011F00C94710D0E9437
:101AE000AC040C94F90B08950E94A5200E94B2202A
:101AF00080E1809345028BE18A93A5E4B2E08C916A
:101B00008A9380E08A93ECEEFDE38827809360005F
:101B10000E94F02053E045E00E94B820E2E6F5E4A0
:101B20000E94F31F55E045E00E94B820E0E7F5E48D
:101B30000E94F31F5FE043E00E94B820EEE7F5E467
:101B40000E94F31F5FE042E10E94B820EAE8F5E45A
:101B50000E94F31FA3E4B2E00C9101FB00270EF4F6
:101B600001E041E0041711F00C94C90D00E140912F
:101B70004502040FA5E4B2E00C930E94A520E8946E
:101B8000A3E4B2E08C9181F98C9384EF91E00E9400
:101B90004A20A3E4B2E00C9100FB00270EF401E020
:101BA00041E0041711F00C94E60DA5E4B2E08C912D
:101BB00080518C930E94A520E894A3E4B2E08C911C
:101BC00080F98C9384EF91E00E944A20A3E4B2E074
:101BD0000C9107FB00270EF401E041E0041711F01F
:101BE0000C94FE0DE894A3E4B2E08C9187F98C93F9
:101BF00084E690E00E944A200E94F20BA3E4B2E047
:101C00000C9104FB00270EF401E041E0041711F0F1
:101C10000C940C0E0E94F20B009145020F3010F054
:101C20000C94150E80E2809345020091450200322B
:101C300018F011F00C941E0E0C94210E80E180938C
:101C4000450200914502003111F00C94540EA3E4BA
:101C5000B2E00C9105FB00270EF401E041E004170F
:101C600011F00C94540E80915402846080935402BD
:101C70000027A4E5B2E08C9181FB0EF401E041E085
:101C8000041711F00C94460E0E94F4000027A4E5FE
:101C9000B2E08C9181FB0EF401E040E0041711F0FA
:101CA0000C94540E0E94AD0000914502003211F0D8
:101CB0000C94870EA3E4B2E00C9105FB00270EF410
:101CC00001E041E0041711F00C94870E809154025A
:101CD0008460809354020027A4E5B2E08C9180FBDD
:101CE0000EF401E041E0041711F00C94790E0E940B
:101CF000AC040027A4E5B2E08C9180FB0EF401E077
:101D000040E0041711F00C94870E0E9465040C94B7
:101D10007B0D08950E94A5200E94B22080E180934F
:101D200045028BE18A93A5E4B2E08C918A9380E02E
:101D30008A93ECEEFDE38827809360000E94F020F8
:101D400053E045E00E94B820E4E9F5E40E94F31F67
:101D500055E045E00E94B820ECE9F5E40E94F31F4D
:101D600057E045E00E94B820E6EBF5E40E94F31F3F
:101D70005FE043E00E94B820EEE7F5E40E94F31F25
:101D80005FE042E10E94B820EAE8F5E40E94F31F18
:101D9000A3E4B2E00C9101FB00270EF401E041E066
:101DA000041711F00C94E70E00E140914502040F76
:101DB000A5E4B2E00C930E94A520E894A3E4B2E06D
:101DC0008C9181F98C9384EF91E00E944A20A3E4E6
:101DD000B2E00C9100FB00270EF401E041E0041793
:101DE00011F00C94040FA5E4B2E08C9180518C9317
:101DF0000E94A520E894A3E4B2E08C9180F98C9332
:101E000084EF91E00E944A20A3E4B2E00C9104FB2D
:101E100000270EF401E041E0041711F00C941C0FB0
:101E2000E894A3E4B2E08C9184F98C9384E690E08A
:101E30000E944A200E94F20BA3E4B2E00C9107FB3F
:101E400000270EF401E041E0041711F00C94340F68
:101E5000E894A3E4B2E08C9187F98C9384E690E057
:101E60000E944A200E94F20BA3E4B2E00C9106FB10
:101E700000270EF401E041E0041711F00C945A0F12
:101E8000E1E0F0E00E94FA1FE894A3E4B2E08C9154
:101E900086F98C9300915502013011F00C94520F89
:101EA0000E94F40000915502023011F00C945A0F78
:101EB0000E94AC04009145020F3010F00C94630FA7
:101EC00080E38093450200914502003318F011F041
:101ED0000C946C0F0C946F0F80E18093450200917D
:101EE0004502003111F00C948D0FA3E4B2E00C9187
:101EF00005FB00270EF401E041E0041711F00C94FB
:101F00008D0FE1E0F0E00E94FA1FE894A3E4B2E054
:101F10008C9185F98C930E94EA0F00914502003262
:101F200011F00C94AB0FA3E4B2E00C9105FB002779
:101F30000EF401E041E0041711F00C94AB0FE1E066
:101F4000F0E00E94FA1FE894A3E4B2E08C9185F9D6
:101F50008C930E94B81100914502003311F00C944B
:101F6000C90FA3E4B2E00C9105FB00270EF401E0D9
:101F700041E0041711F00C94C90FE1E0F0E00E9479
:101F8000FA1FE894A3E4B2E08C9185F98C930E9447
:101F9000961200914502003411F00C94E70FA3E46F
:101FA000B2E00C9105FB00270EF401E041E00417BC
:101FB00011F00C94E70FE1E0F0E00E94FA1FE894C2
:101FC000A3E4B2E08C9185F98C930E9455000C94A7
:101FD000910E089580E18093450280E1809358023C
:101FE0000E94B2200E94A5208BE18A93A5E4B2E072
:101FF0008C918A9380E08A93ECEEFDE388278093AE
:1020000060000E94F02080EA8A93A8E5B2E08C91FB
:102010008A9380E08A93ECECFFE38827809360004A
:102020000E94F02053E045E00E94B820EAECF5E47D
:102030000E94F31F55E045E00E94B820E8EDF5E46A
:102040000E94F31F57E045E00E94B820E4EEF5E45B
:102050000E94F31F59E045E00E94B820E0EFF5E44C
:102060000E94F31F5FE043E00E94B820EEE7F5E432
:102070000E94F31F5FE042E10E94B820EAE8F5E425
:102080000E94F31FA3E4B2E00C9101FB00270EF4C1
:1020900001E041E0041711F00C94611000E140915F
:1020A0004502040FA5E4B2E00C930E94A520E89439
:1020B000A3E4B2E08C9181F98C9384EF91E00E94CB
:1020C0004A20A3E4B2E00C9100FB00270EF401E0EB
:1020D00041E0041711F00C947E10A5E4B2E08C915D
:1020E00080518C930E94A520E894A3E4B2E08C91E7
:1020F00080F98C9384EF91E00E944A20A3E4B2E03F
:102100000C9104FB00270EF401E041E0041711F0EC
:102110000C949610E894A3E4B2E08C9184F98C932B
:1021200084E690E00E944A200E948A0EA3E4B2E076
:102130000C9107FB00270EF401E041E0041711F0B9
:102140000C94AE10E894A3E4B2E08C9187F98C93E0
:1021500084E690E00E944A200E94F20BA3E4B2E0E1
:102160000C9106FB00270EF401E041E0041711F08A
:102170000C94D410E1E0F0E00E94FA1FE894A3E48C
:10218000B2E08C9186F98C9300915502013011F0E8
:102190000C94CC100E94F40000915502023011F012
:1021A0000C94D4100E94AC04009145020F3010F042
:1021B0000C94DD1080E480934502009145020034C8
:1021C00018F011F00C94E6100C94E91080E1809363
:1021D000450200914502003111F00C941C11A3E45A
:1021E000B2E00C9105FB00270EF401E041E004177A
:1021F00011F00C941C110E94A520E1E0F0E00E9477
:10220000FA1FE894A3E4B2E08C9185F98C9380E105
:102210008093580281E080935602809157028F7715
:1022200080935702809157028F7B80935702809151
:1022300057028F7D8093570200914502003211F0C2
:102240000C944F11A3E4B2E00C9105FB00270EF4AF
:1022500001E041E0041711F00C944F110E94A520F9
:10226000E1E0F0E00E94FA1FE894A3E4B2E08C9170
:1022700085F98C9380E28093580280E08093560227
:1022800080915702806880935702809157028F7B1C
:1022900080935702809157028F7D8093570200915F
:1022A0004502003311F00C948211A3E4B2E00C91CA
:1022B00005FB00270EF401E041E0041711F00C9437
:1022C00082110E94A520E1E0F0E00E94FA1FE8944C
:1022D000A3E4B2E08C9185F98C9380E3809358025B
:1022E00080E080935602809157028F778093570247
:1022F00080915702806480935702809157028F7DAE
:102300008093570200914502003411F00C94B511EE
:10231000A3E4B2E00C9105FB00270EF401E041E0DC
:10232000041711F00C94B5110E94A520E1E0F0E033
:102330000E94FA1FE894A3E4B2E08C9185F98C9393
:1023400080E48093580280E0809356028091570287
:102350008F7780935702809157028F7B809357022B
:10236000809157028062809357020C94F40F089575
:102370000E94A5200E94B22052E042E00E94B820B4
:10238000E6E0F5E40E94F31F57E04BE00E94B8201E
:10239000EEE1F5E40E94F31F86E48A938DE28A93CE
:1023A00080E08A93E2E5FCE28827809360000E9447
:1023B000F02086E98A938DE28A9380E08A93EEE6A4
:1023C000FCE28827809360000E94F020A3E4B2E042
:1023D0000C9103FB00270EF401E041E0041711F01B
:1023E0000C940112E1E0F0E00E94FA1FE894A3E4EB
:1023F000B2E08C9183F98C93809133028150809369
:102400003302A3E4B2E00C9102FB00270EF401E0DA
:1024100041E0041711F00C941C12E1E0F0E00E947E
:10242000FA1FE894A3E4B2E08C9182F98C93A3E3C1
:10243000B2E08C918F5F8C9300913302013010F0E9
:102440000C94251281E0809333020091330209300D
:1024500018F011F00C942E120C94311289E0809334
:102460003302A3E4B2E00C9104FB00270EF401E078
:1024700041E0041711F00C944912E894A3E4B2E08F
:102480008C9184F98C9384E690E00E944A200E940B
:102490008A0EA3E4B2E00C9107FB00270EF401E0E2
:1024A00041E0041711F00C946112E894A3E4B2E047
:1024B0008C9187F98C9384E690E00E944A200E94D8
:1024C000F20BA3E4B2E00C9106FB00270EF401E04E
:1024D00041E0041711F00C948712E1E0F0E00E9453
:1024E000FA1FE894A3E4B2E08C9186F98C930091F2
:1024F0005502013011F00C947F120E94F4000091FB
:102500005502023011F00C9487120E94AC0457E07F
:1025100040E10E94B820A2E2B8E0E3E3F2E00E94CA
:10252000C1210E94EB1F0C94E611089580E1809375
:1025300045020E94A5200E94B2208BE18A93A5E467
:10254000B2E08C918A9380E08A93ECEEFDE38827D9
:10255000809360000E94F020A9E4B2E08C918A93FD
:1025600080E18A9380E08A93ECECFFE388278093F4
:1025700060000E94F020ABE4B2E08C918A9380E28C
:102580008A9380E08A93ECECFFE3882780936000D5
:102590000E94F020AAE4B2E08C918A9380E38A93AF
:1025A00080E08A93ECECFFE38827809360000E9430
:1025B000F020ACE4B2E08C918A9380E48A9380E0CE
:1025C0008A93ECECFFE38827809360000E94F02060
:1025D000AFE4B2E08C918A9380E58A9380E08A939D
:1025E000ECECFFE38827809360000E94F02053E02A
:1025F00045E00E94B820ECEFF5E40E94F31F55E09F
:1026000045E00E94B820ECE0F6E40E94F31F57E09A
:1026100045E00E94B820ECE1F6E40E94F31F59E087
:1026200045E00E94B820ECE2F6E40E94F31F5BE074
:1026300045E00E94B820EEE3F6E40E94F31F51E06B
:1026400044E10E94B820EAE4F6E40E94F31F51E05E
:102650004AE10E94B820E0E5F6E40E94F31F5FE043
:1026600043E00E94B820E6E5F6E40E94F31F5FE035
:1026700042E10E94B820EAE8F5E40E94F31FA3E4D7
:10268000B2E00C9101FB00270EF401E041E00417D9
:1026900011F00C945E1300E140914502040FA5E493
:1026A000B2E00C930E94A520E894A3E4B2E08C91E0
:1026B00081F98C9384EF91E00E944A20A3E4B2E078
:1026C0000C9100FB00270EF401E041E0041711F02B
:1026D0000C947B13A5E4B2E08C9180518C930E9402
:1026E000A520E894A3E4B2E08C9180F98C9384EF68
:1026F00091E00E944A20A3E4B2E00C9104FB002781
:102700000EF401E041E0041711F00C949313E894E7
:10271000A3E4B2E08C9184F98C9384E690E00E946B
:102720004A200E948A0EA3E4B2E00C9107FB002726
:102730000EF401E041E0041711F00C94AB13E8949F
:10274000A3E4B2E08C9187F98C9384E690E00E9438
:102750004A200E94F20B009145020F3010F00C94B9
:10276000B4138FE48093450200914502003518F0C0
:1027700011F00C94BD130C94C01380E180934502BA
:1027800088E592E00E944A2000914502003111F054
:102790000C941914A3E4B2E00C9105FB00270EF48D
:1027A00001E041E0041711F00C941914E894A3E43B
:1027B000B2E08C9185F98C930E94A5200027A8E4B3
:1027C000B2E08C9187FB0EF401E040E0041711F0B9
:1027D0000C94F7138091480280648093480288EC3F
:1027E00080934902809154028068809354020027AC
:1027F000A8E4B2E08C9187FB0EF401E041E00417FD
:1028000011F00C941014809148028F7B8093480241
:1028100080EA80934902809154028F77809354021A
:10282000A8E4B2E08C9186FBA8E4B2E08C9187F931
:102830008C9300914502003211F00C946E14A3E4C5
:10284000B2E00C9105FB00270EF401E041E0041713
:1028500011F00C946E14E894A3E4B2E08C9185F925
:102860008C930E94A5200027A8E4B2E08C9185FB00
:102870000EF401E040E0041711F00C944C14809128
:10288000480280618093480280EA80934B028091E5
:1028900054028062809354020027A8E4B2E08C9135
:1028A00085FB0EF401E041E0041711F00C9465146F
:1028B000809148028F7E8093480288EC80934B027F
:1028C000809154028F7D80935402A8E4B2E08C91F1
:1028D00084FBA8E4B2E08C9185F98C9300914502C9
:1028E000003311F00C94C314A3E4B2E00C9105FB87
:1028F00000270EF401E041E0041711F00C94C3141A
:10290000E894A3E4B2E08C9185F98C930E94A52011
:102910000027A8E4B2E08C9183FB0EF401E040E0D4
:10292000041711F00C94A1148091480284608093E4
:10293000480280EA80934A02809154028064809326
:1029400054020027A8E4B2E08C9183FB0EF401E06E
:1029500041E0041711F00C94BA14809148028B7F67
:102960008093480288EC80934A02809154028F7BC6
:1029700080935402A8E4B2E08C9182FBA8E4B2E018
:102980008C9183F98C9300914502003411F00C94E2
:102990001815A3E4B2E00C9105FB00270EF401E04A
:1029A00041E0041711F00C941815E894A3E4B2E088
:1029B0008C9185F98C930E94A5200027A8E4B2E0B1
:1029C0008C9181FB0EF401E040E0041711F00C94AF
:1029D000F6148091480281608093480280EA8093D7
:1029E0004C02809154028061809354020027A8E435
:1029F000B2E08C9181FB0EF401E041E0041711F08C
:102A00000C940F15809148028E7F8093480288ECC9
:102A100080934C02809154028F7E80935402A8E4EC
:102A2000B2E08C9180FBA8E4B2E08C9181F98C93A8
:102A300000914502003511F00C945815A3E4B2E062
:102A40000C9105FB00270EF401E041E0041711F0A2
:102A50000C945815E894A3E4B2E08C9185F98C931A
:102A60000E94A52000914D02003011F00C944315F6
:102A700081E080934E0280EA80934F02809154025D
:102A800088608093540200914D02013011F00C9443
:102A9000541580E080934E0288EC80934F02809121
:102AA0005402877F8093540280914E0280934D029E
:102AB000A3E4B2E00C9104FB00270EF401E041E036
:102AC000041711F00C947015E1E0F0E00E94FA1F79
:102AD000E894A3E4B2E08C9184F98C930E948A0E6E
:102AE000A3E4B2E00C9106FB00270EF401E041E004
:102AF000041711F00C949615E1E0F0E00E94FA1F23
:102B0000E894A3E4B2E08C9186F98C93009155028D
:102B1000013011F00C948E150E94F40000915502C2
:102B2000023011F00C9496150E94AC04A3E4B2E0BC
:102B30000C9107FB00270EF401E041E0041711F0AF
:102B40000C94AE15E1E0F0E00E94FA1FE894A3E4D3
:102B5000B2E08C9187F98C930E94F20B0C949D1239
:102B60000E94A5200E94B22081E08A9381E08A938E
:102B700080E08A93EAECF8E38827809360000E9463
:102B8000F0205FE042E00E94B820E2E6F6E40E9416
:102B9000F31F5FE042E10E94B820EAE8F5E40E94FA
:102BA000F31FA3E4B2E00C9104FB00270EF401E054
:102BB00041E0041711F00C94E915E1E0F0E00E9407
:102BC000FA1FE894A3E4B2E08C9184F98C930E94FC
:102BD000F20BA3E4B2E00C9106FB00270EF401E037
:102BE00041E0041711F00C940F16E1E0F0E00E94B0
:102BF000FA1FE894A3E4B2E08C9186F98C930091DB
:102C00005502013011F00C9407160E94F400009157
:102C10005502023011F00C940F160E94AC04A3E48C
:102C2000B2E00C9107FB00270EF401E041E004172D
:102C300011F00C942716E1E0F0E00E94FA1FE894EE
:102C4000A3E4B2E08C9187F98C930E94F20B0C9470
:102C5000D115101000C003C00FC03FC07FC0FFC01F
:102C60007FC03FC00FC003C000C000AA0900101001
:102C7000C000F000FC00FF00FF80FFC0FF80FF00ED
:102C8000FC00F000C000AA0A0000305800AAFF00B3
:102C9000AAFF00AA1100206800AA4D007FE000AA48
:102CA0000A00FFF000AA0A007FE000AA0A000E0056
:102CB000AA03000100AA040040000E01F1DF9FC238
:102CC00000AA040020000E07F9FFDFC200AA0300DB
:102CD0000720000E07F9FFDFE400AA0300089200B6
:102CE0000E0F39DDDCE479C7AC716092000EAA01E9
:102CF0000EF1DDDCE48A28B289A110000E0FC1DDDF
:102D0000DCE4624622892210000E0FF9DDDFE413B5
:102D10008122890412000E07F9DDDFC40A20A2898E
:102D20000812000403E0889F84F1CF22710810008C
:102D3000AA04001C0200AA03000FA000AA04001CA1
:102D40000200AA04002000AA04001C0100AA04003A
:102D50004000AA04001C00AA0B001C00AA0B0008DB
:102D600000AA6200206800AA4D007FE000AA0A00C5
:102D7000FFF000AA0A007FE000AA0A000E00AA03E2
:102D8000000100AA040040000E01F1DF9FC200AA6A
:102D900003000220000E07F9FFDFC200AA030006AD
:102DA00020000E07F9FFDFE400AA03000212000E64
:102DB0000F39DDDCE479C7AC716212000EAA010E96
:102DC000F1DDDCE48A28B289A210000E0FC1DDDC3F
:102DD000E4624622892210000E0FF9DDDFE4138140
:102DE00022890212000E07F9DDDFC40A20A289023F
:102DF00012000403E0889F84F1CF2271071000AA1B
:102E000004001C0200AA04002000AA04001C020006
:102E1000AA04002000AA04001C0100AA040040002B
:102E2000AA04001C00AA0B001C00AA0B000800AAA0
:102E30006200282800AA0A00FC00AA020001FE0085
:102E4000AA020003FE00AA020007FC00AA02000773
:102E5000FC00AA02000FF800AA02000FF8000FC041
:102E600007F0003FE001E000FFE000AA010003FFDF
:102E7000E000AA010007FFE000AA01001FFFE00038
:102E8000AA01003FFFC000AA01007FFF8000AA0145
:102E900000FFAA01FF00AA010001FFFE00AA010035
:102EA00001FF3C00AA010001FE00AA020003FC0091
:102EB000380003F8007C0003F000FC0003F001F888
:102EC0000003F007F00003F81FE00003FC7FC000E0
:102ED00001FFAA01FF00AA010001FFFE00AA0200F3
:102EE000FFF800AA02007FF000AA02003F8000AABB
:102EF0002800302800AA1B003E00AA020001FF8023
:102F000000AA01000FFFC000AA01003FFFC000AAF5
:102F100001007FFFC00001FFAA01FFC00003FFAA5C
:102F200001FFE00007FFAA01FFE0001FFFE7F0003C
:102F30003FFFC3F0007FFC03F000FFF003F000FF51
:102F4000E003F001FFC007F003FF8007E007FF0088
:102F50000FE007FE000FE00FFC001FE00FF8001F5E
:102F6000C01FF0003FC01FF0007F803FE000FF80E7
:102F70003FE000FF003FC001FF003FC003FE007FB5
:102F8000C00FFC007F801FFC007F803FF8007F8027
:102F90007FF0007F80FFE0003FC3FFC0003FCFFF16
:102FA00080003FFFFE00AA01001FFFFC00AA0100F5
:102FB0000FFFF000AA010007FF8000AA010001FC3A
:102FC00000AA2000302800AA1100FC00AA02000379
:102FD000FE00AA02000FFF00AA02003FFF00AA02A3
:102FE00000FFAA01FF00AA010001FFAA01FF00AA39
:102FF000010003FFFE00AA010003FFFE00AA01007A
:1030000003FFFC00AA010003DFFC00AA02003FF856
:1030100000AA02003FF000AA02007FF000AA02000E
:10302000FFE000AA010001FFE000AA010001FFC0CB
:1030300000AA010003FFC000AA010007FF8000AA48
:10304000010007FF00AA02000FFF00AA02000FFE06
:1030500000AA02001FFE00AA02003FFC00AA020014
:103060003FF800AA02007FF800AA02007FF000AA41
:1030700002007FF000AA0200FFE000AA0200FFE0C9
:1030800000AA0200FFC000AA010001FFC000AA01BF
:103090000001FF8000AA010001FF8000AA010001D9
:1030A000FF8000AA010001FF00AA020001FF00AAA0
:1030B000020001FF00AA0300FF00AA03003F00AACC
:1030C00003000F00AA1B0000302800AA100007FF11
:1030D000E000AA01003FFFF00001FFAA01FFF80095
:1030E00007FFAA01FFF8000FFFAA01FFF8001FFF6A
:1030F000AA01FFF8003FFFF3F8007FFF83F8007F8D
:10310000FC03F800FFF007F800FFC00FF800FFF81D
:103110001FF800FFF87FF800FFF8FFF000FFC3FF83
:10312000E000AA01000FFFC000AA01003FFF8000DD
:10313000AA0100FFAA01FF00AA010001FFFC00AAEA
:10314000010007FFF000AA01001FFFE000AA010034
:103150003FFF8000AA0100FFFE00AA010001FFF866
:1031600000AA010003FFE000AA01000FFF8000AAEF
:1031700001001FFE003F001FFC07FE003FF1FFFEA5
:10318000003FFFAA01FFFE003FFFAA01FFFC003F36
:10319000FFAA01FFFC003FFFAA01FFF8003FFFAAC2
:1031A00001FFF0001FFFAA01FFE0001FFFAA01FFBF
:1031B000C0000FFFF800AA290000303000AA190053
:1031C0001FFFF800AA010001FFAA01FFFE00AA01EB
:1031D0000007FFAA02FF00AA01000FFFAA02FF805A
:1031E000001FFFAA02FF80003FFFF9FF80003FFFA2
:1031F000003F80003FF0003F80003FFC003F800028
:103200001FFC007F80000FC001FF8000AA02000F9A
:10321000FF00AA020001FFFE00AA02003FFFFC001F
:10322000AA01000FFFAA01FFE000AA01001FFFAAE8
:1032300001FF00AA02003FFFE000AA02007FFFE0BA
:1032400000AA02007FFFFC00AA02007FFFAA01FF84
:1032500000AA02007FFFAA01FF8000AA0300FFC0AE
:1032600000AA03003FC000AA03001FC000AA030079
:103270001FC000AA03007FC0000700AA0100FFC012
:10328000001F8003FFC0003F001FFF80007F80FF02
:10329000AA01FF80007FFFAA02FF00AA0100FFAA87
:1032A00002FFFE00AA0100FFAA02FFF800AA010027
:1032B000FFAA02FFF000AA01007FFFAA01FFC000E1
:1032C000AA01003FFFAA01FF00AA02000FFFF800B9
:1032D000AA2C0000302800AA110003FC00AA02005A
:1032E0001FFE00AA02007FFC00AA010001FFFC00F3
:1032F000AA010007FFFC00AA01001FFFFE00AA01AF
:10330000003FFFFC00AA0100FFAA01FFFC0003FF31
:10331000F7FC0007FFCFF8001FFF1FF0003FFE3F44
:10332000F0007FF87FE000FFF07FC001FFC0FF806A
:1033300003FF81FF8007FF03FF000FFE07FE001F52
:10334000FC0FFC001FF80FFC003FF01FFFE03FFFE9
:10335000AA02FFE03FFFAA02FFE03FFFAA02FFE050
:103360003FFFAA02FFC03FFFAA02FFC03FFFAA0221
:10337000FF801FFFAA02FF801FFFAA01FF00AA0211
:103380000003FF00AA020003FF00AA020003FF00DF
:10339000AA020003FE00AA020003FF00AA0200071F
:1033A000FF00AA020007FF8000AA010007FE00AA92
:1033B000020003F800AA020003E000AA1F00303058
:1033C00000AA1F001FFFAA01FF8000AA01007FFFC3
:1033D000AA01FF00AA0200FFAA02FF00AA0200FF42
:1033E000AA01FFFE00AA010001FFAA01FFFC00AA3A
:1033F000010003FFAA01FFFC00AA010007FFAA01C8
:10340000FFF800AA01000FFFAA01FFF000AA0100C7
:103410001FF800AA03003FF000AA03007FE000AA03
:1034200003007FC000AA0300FFAA01FFF800AA0260
:1034300000FFAA01FFFE00AA0200FFAA02FF80000F
:10344000AA0100FFAA02FF8000AA01007FFFAA01D3
:10345000FFC000AA01007FFFAA01FFC000AA01006F
:103460007FFC7FC000AA01003F801FC000AA0300AC
:103470001FC000AA03001FC000AA03003FC000AA8B
:103480000300FFC000AA020001FF8000AA0100F8AB
:1034900007FF800007F81FFF00AA01001FF8FFAA1E
:1034A00001FF00AA01003FE7FFFE00AA01007FFF25
:1034B000AA01FFFC00AA01007FFFAA01FFF800AAF1
:1034C0000100FFAA02FFF000AA0100FFAA02FFE02C
:1034D00000AA0100FFAA02FF8000AA01007FFFFEF0
:1034E00000AA02007FFFF800AA02003FFF8000AAA6
:1034F0002600302800AA150001FFE000AA01000301
:10350000FFE000AA01000FFFC000AA01003FFF007A
:10351000AA02007FFC00AA010001FFF800AA010036
:1035200003FFE000AA010007FFC000AA01000FFF8F
:103530008000AA01001FFF00AA02003FFC00AA02AF
:10354000007FF800AA0200FFAA01FFF00001FFAA15
:1035500001FFF80003FFAA01FFFC0007FFAA01FF1B
:10356000FC0007FFAA01FFFE000FFFF9FE000FFF9E
:10357000E1FE001FFFC1FE001FFF03FE003FFE0330
:10358000FE003FFC07FE003FF807FE003FF00FFC87
:10359000003FE01FFC003FE03FF8003FE07FF80005
:1035A0003FE1FFF0003FE3FFE0001FFFAA01FFC083
:1035B000001FFFAA01FF80000FFFAA01FF00AA0160
:1035C0000007FFFE00AA010003FFF800AA010001A6
:1035D000FFF000AA02007FC000AA2400302800AA41
:1035E0000F0003FFAA01FFC0003FFFAA01FFC000B8
:1035F000FFAA02FFC001FFAA02FFE001FFAA02FF2B
:10360000E003FFAA02FFE007FFAA02FFE00FFFAA04
:1036100002FFC00FFE01FF800FF003FF000FC00785
:10362000FE00AA02000FFC00AA02001FF800AA0276
:10363000003FF000AA02007FE000AA0200FFC000E5
:10364000AA010001FF8000AA010001FF00AA0200F8
:1036500003FE00AA020007FE00AA02000FFC00AA57
:1036600002001FF800AA02003FF800AA02007FF043
:1036700000AA02007FF000AA0200FFE000AA0100F9
:1036800001FFE000AA010001FFC000AA010003FF42
:10369000C000AA010003FF8000AA010007FF80000C
:1036A000AA010007FF8000AA01000FFF00AA020084
:1036B0000FFFC000AA01000FFFC000AA01000FFF0A
:1036C0008000AA01000FFF00AA02000FFC00AA025E
:1036D000000FF800AA200000302800AA150007FFFC
:1036E000F800AA01007FFFFC0003FFAA01FFFC0015
:1036F0000FFFAA01FFFC001FFFAA01FFF8003FFF18
:10370000AA01FFF8007FFFAA01FFF000FFAA02FF55
:10371000E000FFE03F8000FFC07F8000FF80FF00EF
:10372000AA0100FF03FE00AA0100FF87FC00AA0116
:1037300000FF8FF800AA0100FFDFF000AA01007F60
:10374000FFC000AA01007FFF8000AA01003FFF0028
:10375000AA02001FFE00AA02000FFC00AA02001F1E
:10376000FE00AA02003FFE00AA02007FFF00AA019D
:103770000001FFAA01FF00AA010003FFAA01FF0048
:10378000AA010007FEFF00AA01000FFCFF00AA012A
:10379000000FF87F00AA01001FE0FF00AA01003F10
:1037A000E0FF00AA01003FC1FF00AA01003F87FE21
:1037B00000AA01003FFFFE00AA01003FFFFC00AA93
:1037C00001003FFFF800AA01001FFFE000AA01006E
:1037D0000FFF00AA2500302800AA100007FF00AA4A
:1037E00002003FFF8000AA0100FFAA01FFC0000302
:1037F000FFAA01FFE0000FFFAA01FFF0001FFFAAD0
:1038000001FFF0007FFFAA01FFF000FFAA02FFE026
:1038100001FFAA02FF8003FFAA01FF7F0003FFF858
:103820007FC007FFE01FF00FFF803FF00FFF007F1A
:10383000E00FFE01FFE00FFC07FFC00FF80FFF8055
:103840000FF83FFF000FF1FFFE0007FFAA01FFFC8A
:103850000007FFAA01FFF80003FFAA01FFF800011B
:10386000FFAA01FFF000AA0100FFBFE000AA0100CB
:103870003C7FC000AA0200FF8000AA0200FF00AA4D
:10388000020001FE00AA020003FE00AA020007FCDB
:1038900000AA02000FF800AA02003FF000AA0200EE
:1038A0007FE000AA02007FC000AA0200FF8000AAF9
:1038B000010001FF00AA020001FE00AA020001FCB3
:1038C00000AA0300E000AA20000070F000AA59003E
:1038D00007FC00AA010001E000AA170007FE00AAE9
:1038E000010007F000AA170003CF00AA010007702B
:1038F00000AA170003CF3B078710F07C3E1E07612C
:103900008000AA100003CF7B8FE381F8FC7E3F8FFD
:1039100073C000AA100003CFFF9DE7F39DE6F37785
:103920009FF3C000AA100003FE7FBCF7AA01F7FDB9
:10393000F0F8F3CFF18000AA100003FC793CF3C744
:10394000FCAA01FC7EF3CF2000AA110003C0783C42
:10395000F3C7807C3EF3CF018000AA100003C0783B
:103960003EE3C7CB3D9EFB8F03C000AA100007E0DB
:10397000FC1FC7F3FDF8FC7F1F83C000AA100007DF
:10398000E0FC0787E0F0AA01F0781E1F818000AA02
:10399000C4000F03C000AA0100038000AA03007046
:1039A0000001C03800AA0D001F87C000AA01000F47
:1039B0008000AA020001F00007C07C00AA0D000FE1
:1039C0008F8000AA01000F8000AA0300F00003C04E
:1039D0002000AA0D0007CF8760078783C0CE387C00
:1039E000F303C3CC0C00AA0D0007DF8F701FC78F35
:1039F000E3DF7CFCF78FE3DE7C00AA0D0007FF9F6E
:103A0000F019E78CF7FFFDE6FFCCF3FF7C00AA0D71
:103A10000007FF8FF001E780F3CF3DF0F3C0F3CF55
:103A20003C00AA0D0006F78F200FE787F3CF3CFC80
:103A3000F3C7F3CF3C00AA0D000EF78F01BDE79E40
:103A4000F3CF3C7CF3DEF3CF3C00AA0D000E678F72
:103A500003FDE79EF3CF3F3CF3DEF3CF3C00AA0D1E
:103A6000000F6FDF83FFAA01FFDFFFCFBFF9FBDF8E
:103A7000FFEF7E00AA0D001F2FDF818EEFC777DFDB
:103A80003CF1F3E777CFFC00AAFF00AA58001FF033
:103A900000AA01001C00AA030003C03800AA1100FC
:103AA0001FFC00AA01003E00AA03000FC0F800AAF4
:103AB00011000F3E00AA010010004000AA010003FF
:103AC000C0F800AA11000F1EAA011E0F861FC660B3
:103AD000787BC07B8FBCC000AA0E000F1F3F1FBEAB
:103AE000339EF0FCFFC07FDFBDE000AA0E000F1F79
:103AF00073BCFE73BFF9CEF3C07FEF91E000AA0E56
:103B0000000F1FFFBE1E739E7BFFE3C079E7B0C0AE
:103B100000AA0E000F1FFF9F9E731E7BFFE3C0795C
:103B2000E7F000AA0F000F1EF00F9E3E1E7BC1E3C0
:103B3000C079E3E0C000AA0E000F3EF9679EE01EC8
:103B40007BE4E3C079C3E1E000AA0E001FFC7FBF65
:103B50003FFF9F7DFEFFE07F81E1E000AA0E001F96
:103B6000F01EAA011E3E7FFE7C787BC00F09C0AA12
:103B700001C000AA13007FC000AA04001DC000AA53
:103B80001400FF8000AA04001F8000AA14003E0059
:103B9000AA05000F00AAA60003F8E000AA03001C73
:103BA00003800380000F9F00AA02000E00F000AA0D
:103BB0000200E000AA02000E000FF9F000AA0300C4
:103BC0007C07C007C0001FBF00AA02001F03F0004F
:103BD000AA010003E0C000AA01001F001F1C800012
:103BE000AA03003C02000200AA01000F1E00AA0264
:103BF000000800F000AA010003E3C000AA010008C9
:103C0000001F0830CC0F001F3CC0C760C0000F1E53
:103C1000AA011E0671C31EF007C3C1E7F0AA01F096
:103C20003303001FE1F3DE3F803F3DE7CF77C00065
:103C30000F1E7F1EFBFF3FF00FC7F1EFF3F8F79F5A
:103C4000000FF9F7FF33C079BFF7DFF7C0000FFEB1
:103C500067BFFFAA01FF3CF01E6EF1E3C33DFFDF2B
:103C60000007F8F3CF03C07C3CF3CFF3C0780FFE1E
:103C7000079E79EF78F01F1E79E3C03CF3CF001365
:103C8000FCF3CF1FC03F3CF3CF23C0F80F1E3F9E75
:103C900079EF78F00FDE79E3C1FCF3CF00187CF305
:103CA000CF7BC61F3CF3CF03C0F00F1EF79E79EF0A
:103CB00078F187DE79E3C7BCF3CF001C78F3CF7BC4
:103CC000CFAA01CF3CF3CF03C0000F1EF79E79EFC0
:103CD00038F3AA01F3DF71E3CFBCF3CF001FF9FB88
:103CE000EFFFEF7EAA017EF7FF87E0001FBFFFFE18
:103CF0007DFFBFFBDF8FE3F3F7FEFBFF8007E1F7FC
:103D0000CF9DC63C7CFFDF87C0001F3F3BBEF9FF55
:103D10001EF18F03C3F1E1DDF3FF00AAFF00AA2D1E
:103D2000000F03C000AA1A001F87C000AA1A000FC4
:103D30008F8000AA0200F01C03E0F800AA1200071E
:103D4000CF83C3EF03FC3F0FC3FE00AA120007DFBF
:103D50008FE7EF07FC7F83C13E00AA120007FF8CAC
:103D6000F3E4067CF3C3C03C00AA120007FF80F115
:103D7000EC0078F3C3C07C00AA120006F787F1FCC0
:103D80000078F3C3C0FF00AA12000EF79EF0F830CF
:103D9000F0FBC3C0FF00AA12000E679EF0F879E2A4
:103DA0007F83C01F00AA12000F6FDFF8787BFE3FF1
:103DB0000FF01F00AA12001F2FC772703FFC1E07D2
:103DC000F03E00AA15000770180800AA010003FCC5
:103DD00000AA150007E01000AA020001F800AA15C9
:103DE0000003C03000AAFF00AA6200000808080C07
:103DF0000EFFAA01FF0E0C08304800AA13003F0076
:103E0000AA02007FF000AA0200FF800003FFF80072
:103E1000AA010003FFC0000FFFFC00AA01000FFF72
:103E2000C0003FFFFE00AA01003FFFC000FFAA0242
:103E3000FF00AA01007FFFC001FFAA02FF00AA0144
:103E400000FFAA01FF8007FFAA02FF00AA0100FFEE
:103E5000AA01FF800FFFAA01FFFE00AA0100FFAA2E
:103E600001FF001FFFAA01FFF800AA0100F7FF00F1
:103E70003FFFF7F000AA01000FFE003FFF87FC00A4
:103E8000AA01000FFC007FFE01FF00AA01001FFC39
:103E900000FFF803FF00AA01003FF800FFF007FE53
:103EA00000AA01007FF800FFE01FFE00AA01007FCA
:103EB000F000FFC07FFC00AA0100FFF000FF80FFC0
:103EC000F80001FFE000FF83FFF00001FFC000FFEA
:103ED0001FFFE00003FFC0007FFFAA01FFC0000337
:103EE000FF80007FFFAA01FF800007FF80003FFFE7
:103EF000AA01FF80000FFF00AA01001FFFAA01FF17
:103F000000AA01000FFE00AA01000FFBFE00AA019B
:103F1000001FFE00AA010003C7FC00AA01001FFC4D
:103F200000AA02000FF800AA01001FFC00AA02006C
:103F30000FF000AA01003FF800AA02001FE000AA4B
:103F400001003FF800AA02003FE000AA01003FF094
:103F500000AA02007FC000AA01007FF000AA0200B0
:103F6000FF8000AA01007FE000AA010003FF00AA71
:103F700002007FE000AA010007FE00AA02007FE025
:103F800000AA010007FC00AA02007FC000AA0100ED
:103F90000FF800AA02007FC000AA01001FF000AACB
:103FA00002007FC000AA01001FE000AA02003FC07B
:103FB00000AA01001FC000AA02000FC000AA010051
:103FC0000E00AA030003C000AA3C000008083C7EC3
:103FD000FFAA03FF7E3CA2E2B8E08D91882311F096
:103FE0000FD0FBCF08950E94A021802D11F008D0A2
:103FF000FACF089588EE93E04DD03197D9F7089520
:104000008F9388270E9491208F9180520E94912047
:1040100080EC0C949C203197F1F70895689462F835
:104020000895E89462F808958F939F9383E690E053
:104030000197F1F79F918F910895B09B01C0FDCF3B
:1040400029E0B099FECFF0DFEFDFEEDF8894B09982
:1040500008942A9519F087959795F6CF08958F9330
:104060009F9383E690E00197F1F79F918F910895D8
:10407000B39B01C0FDCF29E0B399FECFF0DFEFDFA6
:10408000EEDF8894B39908942A9519F0879597954F
:10409000F6CF0895EF93FF93EE27E82BE92B31F04D
:1040A000E0EDF7E03197F1F70197D1F7FF91EF914C
:1040B0000895AD98AC98A89AA99A84E699270E9489
:1040C0004A20AC9A88272DD083E02BD082E434D0CC
:1040D0008EE127D0882725D083E42ED0882721D0D1
:1040E00020D080E429D08EE11CD088271AD081E42A
:1040F00023D080E821D08FE91FD00895AB9A99276B
:1041000091BB9FEF92BBA998AA9800000000000005
:1041100090B3A99AAA9A93709330A9F79FEF91BB95
:104120000895ECDFAB9882BBA898AA980000000025
:104130000000A89AAA9A0895E1DFAB9AF4CF842FE1
:10414000F0DF852FEEDF84E2F7CF40E053E0F7DFCA
:10415000E0E0F4E18827E5DFE4DF80ECEDDF319794
:10416000C9F7089544275527EADFE0E8F2E0F2CFE7
:104170004A955A95842FD5DF852FD3DF81E2DCDF86
:104180004F93052F4EE10E941B228F91480F8827E5
:10419000581FD5CF042F48E00E9427220F9307E035
:1041A000081B802F992311F4877001C08860982F15
:1041B0000EE1452F0E941B228F91480F8827581F20
:1041C00040505D4F9F93BBDF9F9180EF890FB4CF2D
:1041D000772321F0AA27BB270C9411220C94A0214D
:1041E00011242224332479910E94E8200A920E940B
:1041F000E820002D48E00E9427220A930A930C81B0
:1042000048E00E9427220C830B814EE10E941B2272
:104210008C81480F8827581F40505D4F90DF131442
:1042200079F40E94E820202C802D8A3A39F00E94EF
:10423000E820802D8A3A39F031970DC031960BC0B5
:104240001A9469F308C00E94E820802D882311F495
:10425000329701C0102C882764DF822D62DF80EC4A
:104260006BDF89818A958983D1F6888189838A81E8
:104270008A958A8311F4259608958B8183958B8383
:10428000C3CFAA24BB24FF24EC81EA80EE1AFF08E6
:10429000FB81298033242F1A330881E0EA14FA04C1
:1042A0003CF42FEF3FEFE094F094E80EFA1C02C0CC
:1042B00021E033272A143A043CF46FEF7FEF209477
:1042C0003094280E3A1C02C061E0772735D02E14B6
:1042D0003F0414F009F017C0CE2CDF2CCC0CDD1CF1
:1042E000022C132C000C111C9A81E91761F0E20FCB
:1042F000A00CB11CAE14BF0424F019F0F60FAC18DA
:10430000BD081AD0F1CFC22CD32CCC0CDD1C0E2C46
:104310001F2C000C111C9981F91711F42596089592
:10432000F60FA00CB11CA214B30424F019F0E20F94
:10433000AC18BD0801D0EFCF4E2F5F2F98812ACF48
:10434000C895319600200895000F111F221F331FBA
:10435000089500951095209530950F5F1F4F2F4FB2
:104360003F4F0895019110810EC00191119121914B
:1043700030810BC00191108117FF05C03FEF2FEF77
:1043800004C0008111272227332737FF03C0E1DF54
:104390008DE28D93CF93DF93CF92DF92EF92AA2499
:1043A000BB24CC24DD24EE2440E2CAE0DD2755E026
:1043B00093E38881890F87FD9F7083FD907F891B20
:1043C00089935A95A9F7C0DFAA1CBB1CCC1CDD1C25
:1043D000EE1C4A9551F7E894EFE0FF2782910ED04A
:1043E000EB30E0F71EF068948A2D0CD088278D936F
:1043F000EF90DF90CF90DF91CF910895982F829525
:1044000001D0892F8F70805D26F0803309F40895E4
:1044100068948D930895E199FECFEEBBFFBB319672
:10442000089591E001C092E0F6DFE09A8DB38D939C
:104430009A95D1F70895FF935527F8E0469508F42B
:10444000500F57954795FA95D1F7FF910895FF932F
:10445000881BF9E0001FFA9511F4FF910895881F59
:10446000841B18F4840F8894F5CF0894F3CF504C34
:104470004541534520454E5445522053454E534FD8
:104480005200506C6561736520576169740054284F
:1044900027632029000074004374656D703A0000A2
:1044A0006D61782E743A00006D696E2E743A0000CA
:1044B0004374656D70284B293A0053656E735469D7
:1044C0006D653A0000005553452045534320425541
:1044D00054544F4E20464F5200004241434B20540B
:1044E0004F204E4F524D414C2054595045004241AF
:1044F000434B5B4553435D005945535B43682E571F
:104500004149545D00006265747765656E2074777B
:104510006F2073656E7365732074696D65007761D4
:1045200069743D00312E53454E534F522053454C34
:1045300045435400322E53455454494E47530000CE
:10454000332E47524150484943414C205649455724
:104550000000342E41424F555400352E45584954E1
:104560000000312E53454E534F52204F4E45000010
:10457000322E53454E534F522054574F000053454F
:104580004C4543545B5945535D004241434B5B4EA0
:104590004F5D0000312E5A4F4F4D0000322E4245E4
:1045A000545745454E2054574F2053454E5345537D
:1045B0002054494D4500332E53484F57204D415804
:1045C000264D494E2054454D5000312E783120283B
:1045D000307E313030290000322E78322028307E73
:1045E00035302900332E78332028307E33302900AF
:1045F000342E78342028307E32352900312E435530
:104600005252454E542054454D500000322E4D41DB
:1046100058494D554D2054454D500000332E4D49BD
:104620004E494D554D2054454D500000342E4355B4
:104630005252454E542054454D50284B2900352E9A
:1046400053454E532054494D450053484F570000A1
:104650004849444500004348414E47455B5945534E
:104660005D004D41494E20502E5B4553435D000097
:00000001FF
